:020000040800F2
:10000000A8050020A113000895070008970700081D
:100010009B0700089F070008A307000800000000D6
:10002000000000000000000000000000A70700081A
:10003000A907000800000000AB070008AD07000892
:10004000BB130008BB130008BB130008BB13000858
:10005000BB130008BB130008BB130008BB13000848
:10006000BB130008BB130008BB130008BB13000838
:10007000BB130008BB130008BB130008BB13000828
:10008000BB130008BB130008BB130008BB13000818
:10009000BB130008BB130008BB130008BB13000808
:1000A000BB130008BB130008BB130008BB130008F8
:1000B000BB13000871110008BB130008BB13000834
:1000C000BB130008BB130008BB130008BB130008D8
:1000D000BB13000817130008BB130008FD0A000833
:1000E000BB130008BB130008BB130008DFF80CD0DB
:1000F00003F0A2F800480047FB060008A80500200E
:1001000070B5044648E035B1012D11D0022D1DD047
:10011000032D36D128E00120FE4908600020FE4969
:10012000C1F8A401FD490860FD49C1F8BC0128E0FF
:100130000020F84908600120F749C1F8A401002017
:10014000F6490860F649C1F8BC011AE00020F149FF
:100150000860F149C1F8A4010120F04908600020BD
:10016000EF49C1F8BC010CE00020EA490860EA4907
:10017000C1F8A401E94908600120E949C1F8BC01BE
:1001800000BF00BF681CC5B2042D00DB00250220A3
:1001900001F039F8601E84B2002CB4DC70BD70B57B
:1001A000044648E035B1012D11D0022D1DD0032D9C
:1001B00036D128E00020D7490860D749C1F8A4010A
:1001C000D64908600120D649C1F8BC0128E00020CA
:1001D000D0490860D049C1F8A4010120CF49086086
:1001E0000020CF49C1F8BC011AE00020C9490860CD
:1001F0000120C949C1F8A4010020C8490860C849C4
:10020000C1F8BC010CE00120C24908600020C249CD
:10021000C1F8A401C1490860C149C1F8BC0100BFCF
:1002200000BF681CC5B2042D00DB0025022000F0D1
:10023000EAFF601E84B2002CB4DC70BD10B5B94971
:10024000B94800F000FE1421092000F049FFB74929
:1002500008801421082000F043FFB5490880B24807
:1002600000784FF47A7190FBF1F03030B1490870AA
:10027000AD4800784FF47A7190FBF1F201FB120067
:10028000642190FBF1F03030AA494870A64800780C
:10029000642190FBF1F201FB12000A2190FBF1F0C6
:1002A0003030A4498870A04800780A2190FBF1F210
:1002B00001FB120030309F49C870802000F033FEEF
:1002C000542000F050FE3A2000F04DFE9949087885
:1002D00000F049FE9749487800F045FE9549887836
:1002E00000F041FE9349C87800F03DFE8F48008839
:1002F0004FF47A7190FBF1F030308E4908718B48E1
:1003000000884FF47A7190FBF1F201FB1200642136
:1003100090FBF1F0303087494871844800886421AF
:1003200090FBF1F201FB12000A2190FBF1F030305A
:10033000804988717D4800880A2190FBF1F201FB19
:10034000120030307B49C871872000F0ECFD53204B
:1003500000F009FE3A2000F006FE7649087900F028
:1003600002FE7449487900F0FEFD7249887900F078
:10037000FAFD7049C87900F0F6FD6D4800884FF429
:100380007A7190FBF1F030306A4908726848008851
:100390004FF47A7190FBF1F201FB1200642190FBA3
:1003A000F1F030306349487261480088642190FB65
:1003B000F1F201FB12000A2190FBF1F030305D49AF
:1003C00088725B4800880A2190FBF1F201FB120061
:1003D00030305849C872C02000F0A5FD422000F01E
:1003E000C2FD3A2000F0BFFD5249087A00F0BBFD83
:1003F0005049487A00F0B7FD4E49887A00F0B3FDC5
:100400004C49C87A00F0AFFD464800780A2190FBBD
:10041000F1F0303047490873424800780A2190FBD8
:10042000F1F201FB1200303042494873C72000F05E
:100430007AFD482000F097FD3A2000F094FD3D49F8
:10044000087B00F090FD3B49487B00F08CFD2520A7
:1004500000F089FD34480078232807DD364800780D
:1004600020B100202B49143108601AE02E48007892
:100470001E280BDA2C4800780F2807DB2E4800785E
:1004800020B101202349143108600AE02648007891
:100490000F2806DA2848007818B100201D490839CD
:1004A00008602248008840F2DC51884213DD194878
:1004B0000C380068C0431849C1F894010846D0F8C8
:1004C000B001C043C1F8B0011C4800F0C3FB642078
:1004D00000F099FE06E001200E490C3908600E4933
:1004E000C1F8B0011248008840F2DC5188422BDD8F
:1004F00013480078012827D10F48007820B34FF423
:10050000FA60FFF7FDFD01200249091F0860022083
:100510000B4917E0A081214200802142B001214215
:100520000000214228000020290000202C0000208B
:100530002E000020680000202B000020100000206A
:100540002A000020087016E07E48008840F2DC5146
:10055000884210DC7C48007802280CD17B48007867
:1005600048B14FF4FA60FFF71AFE0020784908609E
:1005700001207549087010BD10B576A000F0FFFA93
:1005800001280FD14FF4FA60FFF7BAFD00206F4940
:100590000870CF2000F0C7FC4D2000F0E4FC0020E4
:1005A0006B4908606DA000F0EAFA01280FD14FF402
:1005B000FA60FFF7F4FD002064490870CF2000F0D6
:1005C000B2FC4D2000F0CFFC01206149086065A01D
:1005D00000F0D5FA01280BD100205D4918310860E0
:1005E0005A490870CF2000F09EFC4D2000F0BBFC63
:1005F0005EA000F0C4FA01280BD1554918310860FB
:10060000002052490870CF2000F08DFC4D2000F0F2
:10061000AAFC58A000F0B3FA01280AD100204C49E6
:1006200008604A490870CF2000F07DFC4D2000F0A2
:100630009AFC52A000F0A3FA01280AD144490860AC
:10064000002042490870CF2000F06DFC4D2000F0E2
:100650008AFC4CA000F093FA012807D13B490870AE
:10066000CF2000F060FC412000F07DFC10BD10B5F3
:1006700000F08CFD4FF4A06001F028FC4FF4165000
:1006800000F0FDFD4FF4E13000F0E8F900F0C9F9A9
:1006900000F0AEF900F07CF900F001FC00F0AAFCDB
:1006A00000F0C4FC0FE0012000F03DFC802000F0D1
:1006B0003AFC002405E03549085D00F054FC601C5C
:1006C000C4B2102CF7DB00F080FA0028EBD18020B8
:1006D00000F029FC002404E0202000F044FC601C11
:1006E000C4B2102CF8DBCF2000F01DFC4D2000F030
:1006F0003AFC01201449087010BDFFF7B8FF4FF411
:100700007A7000F080FDFFF799FD0E48008840F2F6
:10071000DC51884203DD01200B49087008E00948DC
:10072000008840F2DC51884202DC02200649087051
:1007300006E0FFF783FDFFF71FFF154800F08AFA78
:10074000F7E700002E0000202A0000202B000020E8
:100750009C812142585858585858000059595959A5
:100760005959000057575757575700004E4E4E4E95
:100770004E4E00004B4B4B4B4B4B000047474747FF
:10078000474700005A5A5A5A5A5A0000000000209F
:1007900068000020704700BFFEE700BFFEE700BF13
:1007A000FEE700BFFEE770477047704770470000E4
:1007B0000CB50020019000906C48006840F4803037
:1007C0006A49086000BF6948006800F40030009082
:1007D0000198401C0190009818B90198B0F5A06FDD
:1007E000F1D16248006800F4003010B1012000909F
:1007F00001E0002000900098012843D15C48006887
:1008000040F010005A4908600846006820F00300D4
:1008100008600846006840F00200086053484068DD
:10082000524948600846406848600846406840F4BD
:10083000806048600846406820F47C1048600846A4
:10084000406840F4E81048600846006840F0807056
:10085000086000BF4548006800F000700028F9D02B
:100860004248406820F0030040494860084640681C
:1008700040F00200486000BF3C48406800F00C00B7
:100880000828F9D10CBD10B5FFF792FF10BD10B5C7
:100890003648006840F00100344908600846406866
:1008A00034490840314948600846006832490840E8
:1008B0002E4908600846006820F480200860084639
:1008C000406820F4FE0048604FF41F008860FFF786
:1008D000DAFF4FF000602949086010BD10B5002113
:1008E00000200022214B5B6803F00C0121B1042998
:1008F00006D0082928D107E0214B224C236027E0AD
:100900001F4B204C236023E0184B5B6803F47010EE
:10091000164B5B6803F48032022303EB904022B94C
:10092000194B4343174C23600DE0104B5B6803F4F5
:10093000003323B1144B4343124C236003E0104BAC
:100940004343104C236003E00D4B0E4C236000BF6B
:1009500000BF064B5B68C3F303130C4CE15C094B0F
:100960001B68CB40074C236010BD00000010024004
:10097000002002400000FFF8FFFFF6FE08ED00E057
:1009800000127A003000002000093D0034000020F1
:1009900008B501210D2001F031F801212C4800F0AB
:1009A00042FE4FF41040ADF8000010208DF8030017
:1009B00003208DF802006946264800F063FD4FF4DD
:1009C0001041244800F00BFE4FF44070ADF80000D9
:1009D00010208DF8030003208DF8020069461E48A0
:1009E00000F050FD4FF440711B4800F0F8FD08BDC9
:1009F00008B50121082001F001F84FF44050ADF88E
:100A0000000010208DF8030003208DF802006946D5
:100A1000114800F037FD4FF440510F4800F0DFFD62
:100A200008BD08B50121082000F0E8FFE020ADF87E
:100A3000000010208DF8030003208DF802006946A5
:100A4000054800F01FFDE021034800F0C8FD08BD87
:100A50000002300000080140000C014010B586B0D3
:100A600004460121082000F0C9FF0121880400F09C
:100A7000D2FF4FF48060ADF8140003208DF816000B
:100A800018208DF8170005A97B4800F0FBFC4FF4F7
:100A90000060ADF8140004208DF8170005A9764811
:100AA00000F0F0FC27208DF8000000208DF80100F8
:100AB00003208DF8020001208DF80300684601F044
:100AC0000AFA01940020ADF80800ADF80A00ADF86C
:100AD0000C00ADF810000C20ADF80E0001A967481D
:100AE00001F033F8012240F22551644801F0C5F8C5
:100AF0000121624801F0B5F806B010BD10B5002420
:100B00005E4801F01FF9C4B25D485E49097844545B
:100B10005C480078401C5B490870084600786428EF
:100B200001DB0020087010BD002004E00021544AC1
:100B30001154411C88B26428F8DB0021514A11701D
:100B4000704710B504460BE000BF40214B4801F050
:100B500063F90028F9D014F8011B484801F0EEF8B9
:100B600020780028F0D110BD10B50446FFF7DCFF57
:100B70002046FFF7E6FF44A0FFF7E3FF10BD10B5E6
:100B8000044621463E4802F044FB08B1012010BD56
:100B90000020FCE72DE9F04180460C4615461E4634
:100BA00000270EE04046FFF7DFFFB0B200F02BFB5E
:100BB0002046FFF7E4FF10B10120BDE8F081781C6A
:100BC000C7B2AF42EEDB0020F7E710B56423032283
:100BD0002EA12FA0FFF7DEFF044614B94FF0FF301F
:100BE00010BD6423032229A12BA0FFF7D3FF0446E5
:100BF00014B96FF00100F3E76423032223A12AA0B4
:100C0000FFF7C8FF044614B96FF00200E8E7642359
:100C100003221EA12DA0FFF7BDFF044614B96FF0FB
:100C20000300DDE76423032218A12CA0FFF7B2FF25
:100C3000044614B96FF00400D2E76423032213A121
:100C40002CA0FFF7A7FF044614B96FF00500C7E713
:100C50000020C5E710B504463223032229A12AA0AB
:100C6000FFF798FFC82000F0CEFA2046FFF769FF93
:100C7000642000F0C8FA10BD000C0140004800409C
:100C800076000020440000200D0000004F4B0000C3
:100C900041540D0A0000000041542B43574D4F446E
:100CA000453D320D0A00000041542B43575341503B
:100CB0003D2277696669222C22313233343536374A
:100CC00038222C352C330D0A0000000041542B43F0
:100CD00049504D55583D310D0A00000041542B43F9
:100CE00049505345525645523D312C353030300D28
:100CF0000A00000041542B43495053544F3D300DDE
:100D00000A0000003E00000041542B434950534567
:100D10004E443D302C31340D0A00000008B501214D
:100D2000082000F06BFE4FF40040ADF800004820B2
:100D30008DF8030003208DF802006946664800F034
:100D4000A1FB08BD08B50121082000F057FE4FF4B3
:100D50000040ADF8000010208DF8030003208DF84E
:100D6000020069465C4800F08DFB08BD10B5FFF736
:100D7000E9FF002059490860142000F044FA0120DE
:100D80005749C1F8BC011E2000F019FA10BD10B57A
:100D90000024FFF7C3FF04E0601CC4B2012000F090
:100DA0000EFA4E488038006808B1642CF4DB642CDD
:100DB00001DB012010BD002404E0601CC4B201204E
:100DC00000F0FDF945488038006808B9642CF4DB70
:100DD000642C01DB0120EDE70020EBE710B50024D7
:100DE00004E0601CC4B2012000F0E9F93B488038FF
:100DF000006808B1642CF4DB002404E0601CC4B279
:100E0000012000F0DCF935488038006808B9642C0E
:100E1000F4DB282000F0D3F930488038006808B1AE
:100E2000012010BD0020FCE770B50024002506E07D
:100E30006006040EFFF7D2FF0443681CC5B2082DFC
:100E4000F6DB204670BD7CB505460E46FFF78EFFEB
:100E5000FFF79DFFF8B9002405E0FFF7E5FF0DF867
:100E60000400601CC4B2052CF7DB9DF800009DF85F
:100E7000011008449DF8021008449DF8031008442E
:100E80009DF80410884208D19DF8000030709DF84C
:100E90000200287001E001207CBD0020FCE708B5BD
:100EA0000121082000F0AAFD4FF40040ADF8000039
:100EB00010208DF8030003208DF8020069460648D3
:100EC00000F0E0FA4FF40041034800F088FBFFF720
:100ED0004DFFFFF75CFF08BD000C0140BC812142C3
:100EE0000080214208B50121142000F087FD4FF455
:100EF0006040ADF8000003208DF8020010208DF84E
:100F000003006946454800F0BDFAFF20ADF8000037
:100F100014208DF8030003208DF802006946404834
:100F200000F0B0FA08BD10B5044600203D49086045
:100F30003D49C1F8B8013B4908310860E04344EA43
:100F40000040374910310860052000F038F90120D1
:100F50003549C1F8BC01022000F055F900203149A3
:100F60000831086010BD10B5044601202D49086005
:100F700000202D49C1F8B8012A4908310860E04332
:100F800044EA0040264910310860052000F017F9B6
:100F900001202549C1F8BC01022000F034F90020ED
:100FA00020490831086010BD10B50120FFF7BBFFD4
:100FB00010BD70B504460D462DB904F18001C8B2CC
:100FC000FFF7B1FF04E004F1C001C8B2FFF7ABFFC7
:100FD00070BD70B505460E46144631462846FFF7EB
:100FE000E8FF03E014F8010BFFF7BDFF20780028AD
:100FF000F8D170BD10B5FFF775FF3820FFF793FFEC
:101000000C20FFF790FF0620FFF78DFF0120FFF770
:101010008AFF052000F0F7F810BD00000010014025
:1010200000080140B40122420000224200B587B00E
:1010300001214FF4027000F0E1FC4FF4004000F099
:1010400041FC0320ADF8040000208DF8070001A941
:101050002F4800F017FA2F4800F0A6FF002002905A
:1010600001208DF80C008DF80D004FF460200490E5
:101070000020059001208DF8180002A9254800F0F5
:10108000BAFF0121234800F0E2FF224801F001F8F5
:1010900000BF204801F002F80028FAD11D4801F0F5
:1010A00007F800BF1B4801F008F80028FAD107B084
:1010B00000BD10B50446072301222146154801F062
:1010C00032F80121134801F002F800BF0221114853
:1010D00001F06EF90028F9D00E4801F08BF810BD30
:1010E0002DE9F04107460C460025002608E0384669
:1010F000FFF7DFFF0544052000F085F8701CC6B23D
:10110000A642F4DBB5FBF4F080B2BDE8F08100004C
:10111000000C0140002401407FB505460C4601212A
:10112000022000F078FCADF80850ADF80440002033
:10113000ADF80A00ADF8060001A9134801F030FA35
:1011400001221146104801F0A2FD1D208DF800007B
:1011500003208DF801008DF8020001208DF80300B6
:10116000684600F0B8FE0121074801F075FD7FBD1B
:1011700010B50121044802F038F818B101210248E5
:1011800002F044F810BD00000004004010B56FF0FC
:10119000040000F0EAFE2E4800682E49B0FBF1F092
:1011A0002D4908700846007800EB4001C1EBC010E3
:1011B0004FF6FF7101EAC0002849088010BD0146C2
:1011C000254A12784A434FF0E0235A6100229A617F
:1011D0001A46126942F001021A6100BF4FF0E02284
:1011E000106900F001021AB100F48032002AF5D033
:1011F0004FF0E022126922F001024FF0E0231A6161
:1012000000229A6170470146144A12884A434FF0FF
:10121000E0235A6100229A611A46126942F00102E3
:101220001A6100BF4FF0E022106900F001021AB10C
:1012300000F48032002AF5D04FF0E022126922F04B
:1012400001024FF0E0231A6100229A61704700000A
:101250003000002000127A004600002048000020E4
:10126000014600BF704700BF494A128802F04002A1
:10127000002AF9D0C2B2464B1B1D1A80704710B528
:1012800086B00446012144F2040000F0B7FB4FF49D
:101290000070ADF8140003208DF8160018208DF8AA
:1012A000170005A93B4800F0EDF84FF48060ADF859
:1012B000140004208DF8170005A9364800F0E2F864
:1012C00025208DF8000003208DF801008DF8020024
:1012D00001208DF80300684600F0FDFD0194002018
:1012E000ADF80800ADF80A00ADF80C00ADF810003C
:1012F0000C20ADF80E0001A9254800F026FC0122C3
:1013000040F22551224800F0B8FC0121204800F0AD
:10131000A8FC06B010BD10B540F225511C4800F0E5
:1013200091FD10B31A4800F00DFDC4B21A480088B0
:1013300000F40040C8B91848008800F4804060B14B
:101340000A2C03D000201449088020E012480088AD
:1013500040F400401049088019E00D2C06D10E48D9
:10136000008840F480400C49088010E00A4800885A
:10137000C0F30D0009490C5407480088401C064979
:10138000088008460088C72801DD0020088010BDBD
:10139000003801400008014050000020DA00002021
:1013A0000648804706480047FEE7FEE7FEE7FEE7FF
:1013B000FEE7FEE7FEE7FEE7FEE7FEE78F08000830
:1013C000ED00000810B50446CC48844208D1012144
:1013D000042000F02DFB0021042000F029FB46E052
:1013E000C748844208D10121082000F021FB0021D8
:1013F000082000F01DFB3AE0C248844208D10121D8
:10140000102000F015FB0021102000F011FB2EE051
:10141000BD48844208D10121202000F009FB0021B1
:10142000202000F005FB22E0B848844208D10121C9
:10143000402000F0FDFA0021402000F0F9FA16E00B
:10144000B348844208D10121802000F0F1FA002144
:10145000802000F0EDFA0AE0AE48844207D1012175
:10146000801500F0E5FA0021A01500F0E1FA10BDAA
:1014700010B50121084600F0DBFA0021012000F040
:10148000D7FA10BD2DE9F0410246002500260020C4
:1014900000230024002791F803C00CF00F0591F8F9
:1014A00003C00CF0100CBCF1000F03D091F802C087
:1014B0004CEA050591F800C0BCF1000F31D014686A
:1014C00000202BE04FF0010C0CFA00F3B1F800C043
:1014D0000CEA03069E4220D183004FF00F0C0CFA59
:1014E00003F7BC4305FA03FC4CEA040491F803C07B
:1014F000BCF1280F06D14FF0010C0CFA00FCC2F829
:1015000014C00AE091F803C0BCF1480F05D14FF0B8
:10151000010C0CFA00FCC2F810C0401C0828D1D302
:101520001460B1F800C0BCF1FF0F34DD5468002036
:101530002EE000F1080C4FF0010808FA0CF3B1F8A6
:1015400000C00CEA03069E4221D183004FF00F0C2D
:101550000CFA03F7BC4305FA03FC4CEA040491F8C7
:1015600003C0BCF1280F05D100F1080C08FA0CF8F3
:10157000C2F8148091F803C0BCF1480F07D100F104
:10158000080C4FF0010808FA0CF8C2F81080401C53
:101590000828CED35460BDE8F0814FF6FF7101807A
:1015A000022181700421C1707047024600209368B7
:1015B0000B400BB1012000E0002070470146886815
:1015C00080B2704702460020D3680B400BB1012067
:1015D00000E0002070470146C86880B27047016192
:1015E0007047416170470AB1016100E04161704795
:1015F000C16070474FF480320A4382618161826129
:1016000082698269704702460020434B18684FF692
:101610008073184040EA021008433F4B186070473F
:101620003E49C8617047F0B50A46002300240021F6
:10163000002500F00046B6F1004F02D1364EF169A8
:1016400001E0354E7168C0F3034583B200F44016E3
:10165000B6F5401F08D121F070612F4E766826F054
:1016600070662D4F7E6012E000F48016B6F5801F84
:1016700006D1032606FA05F4A14341F0706106E0A5
:10168000460D360103FA06F6B14341F0706122B10E
:10169000460D360103FA06F6314300F00046B6F176
:1016A000004F02D11C4EF16101E01B4E7160F0BD94
:1016B00030B500228B071C0F0F2303FA04F2164BE0
:1016C00008338C1053F824309343134C08348D1096
:1016D00044F8253023468C1053F824308C07240F0F
:1016E00000FA04F423430C4C08348D1044F82530E0
:1016F00030BD0A49DC310860704700000008014035
:10170000000C01400010014000140140001801408D
:10171000001C014000200140000001400000204268
:10172000DF48006840F00100DD4908600846406875
:10173000DC490840DA49486008460068DA49084050
:10174000D74908600846006820F4802008600846F1
:10175000406820F4FE0048604FF41F008860704726
:10176000CF49096821F48031CD4A116011460968DA
:1017700021F480211160B0F5803F03D0B0F5802FB7
:101780000ED106E0C649096841F48031C44A1160AF
:1017900007E0C349096841F4A021C14A116000E093
:1017A00000BF00BF704710B5014600220023002093
:1017B0004A11012A02D1BA4C236806E0022A02D15A
:1017C000B74C236A01E0B64C636A01F01F020124A2
:1017D00094401C400CB1012000E0002010BD38B541
:1017E000002000900024002500BF3120FFF7DBFF20
:1017F00005460098401C00900098B0F5A06F01D0FD
:10180000002DF2D03120FFF7CEFF08B1012400E017
:101810000024204638BD01460020A14A106820F06F
:10182000F80040EAC10010607047A04908607047A6
:10183000024600209A4B586820F47C1042EA0103CB
:101840001843974B5860704798490866704701469F
:101850000020934A506820F003000843506070470E
:101860008F48406800F00C007047014600208C4A09
:10187000506820F0F0000843506070470146002097
:10188000874A506820F4E060084350607047014682
:101890000020834A506820F4605040EAC100506044
:1018A000704729B17E4A527A02437D4B5A7204E056
:1018B0007B4A527A82437A4B5A7270477B49D831BD
:1018C0000860704701460020754A506820F4404087
:1018D0000843506070470021714A20321170704AED
:1018E00082F82010012802D004280AD104E0012146
:1018F0006B4A2032117005E00521694A20321170CF
:1019000000E000BF00BF7047694908607047644944
:10191000096A0143624A11627047654944390860A7
:10192000704730B500210022002400235C4D6D6813
:1019300005F00C0121B1042905D0082923D105E0C7
:101940005C4D056022E05B4D05601FE0544D6D6805
:1019500005F47012524D6D6805F48034022505EBD4
:1019600092421CB9544D554305600BE04C4D6D68D7
:1019700005F400351DB1504D5543056002E04D4D55
:101980005543056002E04B4D056000BF00BF444D6C
:101990006D6805F0F0010909484D6B5C0568DD4094
:1019A00045603F4D6D6805F4E061090A434D6B5C8D
:1019B0004568DD4085603A4D6D6805F46051C90A9F
:1019C0003E4D6B5C4568DD40C560354D6D6805F486
:1019D0004041890B3A4D6B5CC568B5FBF3F5056179
:1019E00030BD29B12E4A526902432D4B5A6104E0A1
:1019F0002B4A526982432A4B5A61704729B1284ABF
:101A000092690243264B9A6104E0254A9269824317
:101A1000234B9A61704729B1214AD2690243204B76
:101A2000DA6104E01E4AD26982431D4BDA617047D5
:101A300029B11B4AD2680243194BDA6004E0184A04
:101A4000D2688243164BDA60704729B1144A126992
:101A50000243134B1A6104E0114A12698243104B8E
:101A60001A61704712494039086070470F49C864CD
:101A700070470B49C87170470948406A40F0807050
:101A800007494862704701460020054A92680A40AB
:101A90000AB1012000E000207047014988727047B8
:101AA000001002400000FFF8FFFFF6FE0000424277
:101AB0008004424200127A0000093D0052000020DA
:101AC0006200002010B50446FB48844209D1012180
:101AD0008803FFF7ADFF00214FF48040FFF7A8FF18
:101AE00032E0F648844209D101214804FFF7ADFFF6
:101AF00000214FF40030FFF7A8FF25E0F0488442B2
:101B000009D101218804FFF7A0FF00214FF48020B4
:101B1000FFF79BFF18E0EB48844209D10121C8047C
:101B2000FFF793FF00214FF40020FFF78EFF0BE03B
:101B3000E548844208D101210805FFF786FF00210E
:101B40004FF48010FFF781FF10BD2DE9F04786B0FC
:101B500005460E460024A24600BFA1460027B089D4
:101B600000B100BF2F462C8A4CF6FF700440F0886D
:101B700004432C82AC894EF6F3100440B0883189BE
:101B80000843718908430443AC81AC8A4FF6FF4097
:101B90000440B0890443AC8201A8FFF7C2FEC648E6
:101BA000874202D1DDF810A001E0DDF80CA0A88981
:101BB00000F4004040B10AEBCA0000EB0A103168A3
:101BC0004900B0FBF1F807E00AEBCA0000EB0A108D
:101BD00031688900B0FBF1F86420B8FBF0F0040133
:101BE0002009642101FB1089A88900F4004040B15C
:101BF000322000EBC900B0FBF1F000F00700044315
:101C000008E0322000EB09106421B0FBF1F000F095
:101C10000F0004432C8106B0BDE8F0874FF4165145
:101C2000016000218180C18001810C21418100215E
:101C30008181704710B502460020108A4FF2FF03E1
:101C400018400B884C8823438C882343CC8823433B
:101C50001843108210BD0021018041808180C18025
:101C6000704721B1828942F40052828104E0828966
:101C70004DF6FF731A4082817047F0B50346002489
:101C800000260025002040F66A17B94200D100BFA7
:101C90001846C1F3421401F01F06012707FA06F5A2
:101CA000012C01D10C3004E0022C01D1103000E0F5
:101CB00014301AB107682F43076002E00768AF438A
:101CC0000760F0BD1AB1838A0B43838202E0838AE6
:101CD0008B4383827047028A4FF6F0731A40028268
:101CE000028A0A430282704782894FF2FF731A40C8
:101CF000828182890A438281704721B1828942F0C0
:101D00000202828104E082894FF6FD731A408281CB
:101D10007047028A4FF6DF731A400282028A0A4332
:101D20000282704721B1028A42F48042028204E0BA
:101D3000028A4BF6FF731A4002827047C1F3080211
:101D40008280704701468888C0F308007047818907
:101D500041F0010181817047028BD2B20283028B74
:101D600042EA012202837047028B02F47F4202831F
:101D7000028B0A430283704721B1828A42F020021B
:101D8000828204E0828A4FF6DF731A4082827047B3
:101D900021B1828A42F01002828204E0828A4FF6E8
:101DA000EF731A408282704721B1828A42F00802A2
:101DB000828204E0828A4FF6F7731A40828270476B
:101DC00021B1828942F40042828103E08289C2F318
:101DD0000E028281704721B1828A42F400628282BF
:101DE00004E0828A4FF2FF731A4082827047828A2F
:101DF0004FF6FB731A408282828A0A4382827047BE
:101E000021B1828A42F00202828204E0828A4FF685
:101E1000FD731A408282704702460020B1F5007FB0
:101E200000D100BF13880B400BB1012000E000205F
:101E3000704701F40072B2F5007F00D100BFCA43C1
:101E40000280704770B50246002400230025002060
:101E500040F66A16B14200D100BFC1F3421501F04D
:101E60001F03012606FA03F3012D02D196893340A0
:101E700006E0022D02D1168A334001E0968A3340F3
:101E80000C12012606FA04F41688344013B10CB182
:101E9000012000E0002070BD10B50022002340F6B4
:101EA0006A14A14200D100BF0A1201249440A3B2D7
:101EB000DC43048010BD00000038014000440040B5
:101EC00000480040004C00400050004031490143B0
:101ED000314A1160704770B5002100230F22C47889
:101EE00004B32D4C246804F4E064C4F5E064210AD2
:101EF000C1F10403CA40447804FA03F18478144021
:101F000021430901254C0678A155047804F01F05EA
:101F10000124AC4005786D11AD0005F1E025C5F850
:101F2000004109E0047804F01F050124AC401C4D79
:101F30000678761145F8264070BD1A4A0A400243D9
:101F4000154B1B1F1A60704739B1134A121D1268D6
:101F50000243114B1B1D1A6006E00F4A121D126846
:101F600082430D4B1B1D1A607047042808D14FF0A7
:101F7000E021096941F004014FF0E022116107E01E
:101F80004FF0E021096921F004014FF0E0221161D6
:101F9000704700000000FA050CED00E000E400E0EE
:101FA00080E100E080FFFF1F10B50446FA4884423C
:101FB00008D101214015FFF73BFD00216015FFF717
:101FC00037FD17E0F548844208D101210015FFF7DD
:101FD0002FFD00212015FFF72BFD0BE0F048844278
:101FE00008D10121C803FFF723FD00214FF4004071
:101FF000FFF71EFD10BD30B50246002000235068DB
:10200000E84C20400D790C6844EA052420435060D8
:102010009068E54C2040D1E902542C434D7944EAC4
:10202000450420439060D06A20F470000C7C641E4C
:10203000E4B2234340EA0350D06230BD0021016086
:10204000017141718160C16001210174704721B14A
:10205000826842F00102826003E0826822F001029D
:102060008260704721B1826842F48072826003E02E
:10207000826822F480728260704710B50023CBB270
:102080001AB144681C43446002E044689C434460C5
:1020900010BD816841F00801816070470146002051
:1020A0008A6802F008020AB1012000E000207047AF
:1020B000816841F0040181607047014600208A6810
:1020C00002F004020AB1012000E00020704721B1B3
:1020D000826842F4A002826003E0826822F4A002D7
:1020E00082607047014600208A6802F480020AB1CB
:1020F000012000E00020704710B50A4600210023AF
:10210000416821F46041531E41EA4331416010BDF2
:1021100021B1426842F40062426003E0426822F466
:10212000006242607047F0B504460D460020002171
:10213000092D11DDE068A5F10A0606EB4607072622
:1021400006FA07F18843A5F10A0606EB460603FAEC
:1021500006F10843E0600CE0206905EB450707261F
:1021600006FA07F1884305EB450603FA06F1084332
:102170002061072A0FDA606B561E06EB86071F26C2
:1021800006FA07F18843561E06EB860605FA06F1A5
:102190000843606322E00D2A0FDA206BD61F06EB9E
:1021A00086071F2606FA07F18843D61F06EB860628
:1021B00005FA06F10843206310E0E06AA2F10D067B
:1021C00006EB86071F2606FA07F18843A2F10D06E3
:1021D00006EB860605FA06F10843E062F0BD21B180
:1021E000826842F48012826003E0826822F48012E6
:1021F000826070470146C86C80B2704766484C30B8
:102200000068704721B1426842F48062426003E096
:10221000426822F480624260704721B1426842F411
:102220008052426003E0426822F48052426070476C
:102230000A460021816821F4E04111438160704722
:1022400021B1826842F40042826003E0826822F495
:1022500000428260704721B1826842F402128260BB
:1022600003E0826822F40212826070470146002077
:102270008A6802F400120AB1012000E000207047D1
:10228000F0B504461546002000220026092911DD7C
:10229000E068A1F10A0707EB470C072707FA0CF2E1
:1022A0009043A1F10A0707EB470703FA07F210432F
:1022B000E0600CE0206901EB410C072707FA0CF203
:1022C000904301EB410703FA07F210432061A06B32
:1022D000C0F30156EF1C06F1010CA7EB0C0707EB4E
:1022E000870C1F2707FA0CF29043EF1C06F1010C34
:1022F000A7EB0C0707EB870701FA07F21043A0636F
:10230000F0BD10B50A4600210023816B21F4401175
:10231000531E41EA0351816310BD08B500230093A9
:102320000090009B0B440093009B1A6008BD08B509
:10233000024600200090009201F12800009B184402
:1023400000900098006880B208BD0A4600214168EC
:10235000164B1940114341607047416282627047D9
:102360000A460021416821F01F0111434160704776
:1023700040B109490831096841F40001064A0832B0
:10238000116007E004490831096821F40001024A9C
:10239000083211607047000000240140002801400D
:1023A000003C0140FFFEF0FFFDF7F1FFFFFD3FFFA6
:1023B0000246002013680B400BB1012000E0002012
:1023C0007047CA430260704770B502460020002380
:1023D00000240B125568CEB205EA060415681D40AC
:1023E00015B10CB1012000E0002070BD00220A12DE
:1023F000D34303607047000010B50446FE48844292
:1024000008D10121C014FFF713FB0021E014FFF7EE
:102410000FFBC4E0B4F1804F08D101210846FFF75B
:1024200014FB00210120FFF710FBB8E0F3488442C1
:1024300008D101210220FFF708FB00210220FFF74D
:1024400004FBACE0EE48844208D101210420FFF7F0
:10245000FCFA00210420FFF7F8FAA0E0E9488442E2
:1024600008D101210820FFF7F0FA00210820FFF72A
:10247000ECFA94E0E448844208D101211020FFF7EF
:10248000E4FA00211020FFF7E0FA88E0DF488442F8
:1024900008D101212020FFF7D8FA00212020FFF7E2
:1024A000D4FA7CE0DA48844208D101214014FFF7D5
:1024B000BFFA00216014FFF7BBFA70E0D5488442F0
:1024C00009D10121C804FFF7B3FA00214FF400201D
:1024D000FFF7AEFA63E0D048844209D10121080534
:1024E000FFF7A6FA00214FF48010FFF7A1FA56E09B
:1024F000CA48844209D101214805FFF799FA002111
:102500004FF40010FFF794FA49E0C548844208D11F
:1025100001214020FFF799FA00214020FFF795FAAA
:102520003DE0C048844208D101218020FFF78DFAA8
:1025300000218020FFF789FA31E0BB48844208D1AE
:1025400001218015FFF781FA0021A015FFF77DFA20
:1025500025E0B648844209D101210804FFF768FA52
:1025600000214FF48030FFF763FA18E0B04884424E
:1025700009D101214804FFF75BFA00214FF4003034
:10258000FFF756FA0BE0AB48844208D101218804DA
:10259000FFF74EFA00214FF48020FFF749FA10BDF3
:1025A00000220288944B98420ED0994B98420BD04F
:1025B000B0F1804F08D0914B984205D0904B984293
:1025C00002D0904B984204D14FF68F731A404B883B
:1025D0001A438D4B984207D08C4B984204D04FF64B
:1025E000FF431A40CB881A4302808B8883850B886F
:1025F0000385814B98420BD0854B984208D08B4B7A
:10260000984205D08A4B984202D08A4B984201D119
:102610000B7A038601238382704770B50024002261
:102620000023058C4FF6FE7635400584028C8388A6
:10263000048B4FF68F752C40B51E2C400D882C4313
:10264000751E2A400D892A434D882A436A4DA842A7
:102650000BD06F4DA84208D0744DA84205D0744DE0
:10266000A84202D0734DA84213D14FF6F7752A4005
:102670004D892A434FF6FB752A408D882A434FF631
:10268000FF652B404FF6FF552B408D892B43CD899D
:102690002B4383800483CD888586028470BD70B50A
:1026A000002400220023058C4FF6EF763540058488
:1026B000028C8388048B48F6FF752C404FF6FF454B
:1026C0002C400D884FF6FF7606EA05252C434FF681
:1026D000DF752A400D8906EA05152A434D8806EA6A
:1026E00005152A43444DA84202D0494DA8421DD1A8
:1026F0004FF67F752A404D894FF6FF7606EA05159D
:102700002A434FF6BF752A408D8806EA05152A43ED
:102710004FF6FF352B404FF2FF752B408D8906EAAF
:1027200085052B43CD8906EA85052B4383800483E9
:10273000CD880587028470BD70B500240022002377
:10274000058C4FF6FF6635400584028C8388848BA8
:102750004FF68F752C404FF6FC752C400D882C439E
:102760004FF6FF552A400D894FF6FF7606EA0525FC
:102770002A434D8806EA05252A431F4DA84202D068
:10278000234DA8421DD14FF2FF752A404D894FF6C7
:10279000FF7606EA05252A434FF6FF352A408D8845
:1027A00006EA05252A434EF6FF752B404DF6FF75C8
:1027B0002B408D8906EA05152B43CD8906EA0515C0
:1027C0002B4383808483CD888587028470BD70B558
:1027D000002200230024058C4EF6FF763540058448
:1027E000038C8488828B48F6FF752A404FF6FF459C
:1027F0002A400D8820E00000002C01400004004029
:1028000000080040000C0040001000400014004090
:1028100000340140004C0140005001400054014090
:1028200000180040001C0040002000400040014013
:1028300000440140004801404FF6FF7606EA0525B6
:102840002A434DF6FF752B400D8906EA05352B43CB
:102850004D8806EA05352B43FA4DA84202D0FA4DC1
:10286000A84208D14BF6FF752C408D894FF6FF76B4
:1028700006EA85152C4384808283CD88A0F84050D9
:10288000038470BD828B4FF2FF331A408283828BA8
:102890004FF6FF7303EA01231A4382837047F0B5B2
:1028A0000C461546002200210026078C4EF6FF7CC0
:1028B00007EA0C070784828B018C4FF6FF7707EA43
:1028C000043640F6FF473A404FF6FF7707EA052700
:1028D0003A434FF6FF7707EA03373A43D94FB842F6
:1028E0000ED0D94FB8420BD0B0F1804F08D0D74F9F
:1028F000B84205D0D64FB84202D0D64FB84206D122
:102900004DF6FF77394046F48057394305E047F6E6
:10291000FF57394044F48057394382830184F0BD26
:10292000828B4FF6F3731A408283828B0A43828331
:102930007047F0B50C461546002200210026078C92
:102940004FF6FF6C07EA0C070784828B018C4FF669
:10295000FF7707EA04264FF60C773A404FF6FF77E9
:1029600007EA03172F433A43B64FB8420ED0B64F8B
:10297000B8420BD0B0F1804F08D0B44FB84205D068
:10298000B34FB84202D0B34FB84206D14FF6FF570B
:10299000394046F48077394305E04FF2FF5739401C
:1029A00044F48077394382830184F0BD028B4FF277
:1029B000FF331A400283028B4FF6FF7303EA0123B1
:1029C0001A4302837047F0B50C46154600220021D9
:1029D0000026078C4FF6EF7C07EA0C070784028B72
:1029E000018C4FF6FF7707EA041640F6FF473A409E
:1029F0004FF6FF7707EA03373A434FF6FF7707EAC8
:102A000005273A438F4FB8420ED08F4FB8420BD0B4
:102A1000B0F1804F08D08D4FB84205D08C4FB842EE
:102A200002D08C4FB84206D14FF6DF77394046F0DE
:102A30001007394305E04FF65F77394044F010073F
:102A4000394302830184F0BD028B4FF6F3731A40C1
:102A50000283028B0A4302837047F0B50C46154689
:102A600000220021068C4FF6FE773E400684028B42
:102A7000018C4FF60C7632407E1C06EA03162E437C
:102A80003243704EB0420ED06F4EB0420BD0B0F118
:102A9000804F08D06D4EB04205D06D4EB04202D08E
:102AA0006C4EB04206D14FF6FD76314044F001063F
:102AB000314305E04FF6F576314044F001063143ED
:102AC00002830184F0BD70B505460C465D48854221
:102AD0000ED05D4885420BD0B5F1804F08D05B48E1
:102AE000854205D05A48854202D05A48854200D1D5
:102AF00000E000BF208850B92389A2886188284659
:102B0000FFF7ABFFE1882846FFF79EFF25E020880E
:102B100004280AD12389A28861882846FFF753FF39
:102B2000E1882846FFF742FF17E0208808280AD1ED
:102B30002389A28861882846FFF7FBFEE1882846A2
:102B4000FFF7EEFE09E02389A28861882846FFF797
:102B5000A6FEE1882846FFF795FE70BD2DE9F041FD
:102B600005460C4600260127608808B9022600E0C9
:102B70000026A088012801D1022700E00127208833
:102B8000A0B92389A28861882846FFF766FFE188FB
:102B90002846FFF759FF23893A4631462846FFF772
:102BA00012FFE1882846FFF701FF13E02389A2887E
:102BB00061882846FFF707FFE1882846FFF7F6FE01
:102BC00023893A4631462846FFF747FFE1882846E1
:102BD000FFF73AFFBDE8F0810A884B881A438B88DB
:102BE0001A43CB881A430B891A434B891A438B89A2
:102BF0001A43A0F8442070474FF6FF7181800021EE
:102C00000180C180418001727047002101804180B4
:102C10008180C180018141818181C1817047002112
:102C200001804180012181800021C18001817047A4
:102C30000021018041808180C180018141818181A9
:102C400070470000002C01400034014000040040A7
:102C500000080040000C004021B1028842F001024F
:102C6000028004E002884FF6FE731A40028070472B
:102C700031B1B0F8442042F40042A0F8442005E00D
:102C8000B0F84420C2F30E02A0F8442070471AB1F5
:102C900083890B43838102E083898B43838170475F
:102CA0008182704741EA0203A0F8483070471AB1A8
:102CB00083890B43838102E083898B43838170473F
:102CC00001894FF6F8721140018170470A460021D0
:102CD00001894FF68F73194011430181704730B558
:102CE00004460D4629462046FFF7F0FF208940F0B4
:102CF0000700208130BD2DE9F04104460D461646FF
:102D00001F46602D06D13B46012231462046FFF783
:102D10005AFE05E03B46012231462046FFF79DFE64
:102D200029462046FFF7D2FF208940F00700208186
:102D3000BDE8F08130B50C4600210189C9B24FF6DB
:102D4000FF7505EA0325154325432943018130BD5D
:102D50002DE9F04105460E461746984600244346A5
:102D60003A4631462846FFF7E5FF2C894FF6F870C2
:102D7000044044F007044FF68F70044044F07004A0
:102D80002C81BDE8F081F0B504460D4616461F467D
:102D90003B46324629462046FFF7CCFF208940F4C7
:102DA00080402081F0BD0185828270470A46002163
:102DB00001884FF68F731940114301807047F0B5B9
:102DC0000C4615461E460021002200230189028B75
:102DD000038C4FF6F877394021434FF6FC473A40D1
:102DE00040F201173A434FF6DD773B404FF6FF774D
:102DF00007EA06172F433B43018102830384F0BD9A
:102E00000A460021018B4FF68F731940114301834D
:102E100070470A460021018B48F6FF7319404FF6B0
:102E2000FF7303EA02231943018370470A46002116
:102E3000818B4FF68F7319401143818370470A4687
:102E40000021818B48F6FF7319404FF6FF7303EAA8
:102E5000022319438183704721B1028842F0800226
:102E6000028004E002884FF67F731A4002807047A8
:102E700021B1828842F00402828004E082884FF609
:102E8000FB731A408280704721B1828842F00802A9
:102E9000828004E082884FF6F7731A408280704780
:102EA00021B1828842F00102828004E082884FF6DC
:102EB000FE731A40828070470A460021018B4FF64C
:102EC000F77319401143018370470A460021018BB3
:102ED0004FF2FF7319404FF6FF7303EA02231943C1
:102EE000018370470A460021818B4FF6F773194022
:102EF0001143818370470A460021818B4FF2FF7393
:102F000019404FF6FF7303EA022319438183704788
:102F10000A460021018B4FF6FB73194011430183D0
:102F200070470A460021018B4FF6FF3319404FF6D8
:102F3000FF7303EA02231943018370470A46002105
:102F4000818B4FF6FB7319401143818370470A460A
:102F50000021818B4FF6FF3319404FF6FF7303EAD0
:102F600002231943818370470A460021018B4FF6E3
:102F70007F7319401143018370470A460021018B7A
:102F8000C1F30E014FF6FF7303EA022319430183D5
:102F900070470A460021818B4FF67F731940114319
:102FA000818370470A460021818BC1F30E014FF6E1
:102FB000FF7303EA02231943818370470A46002105
:102FC000018C4FF6FD7319401143018470470A4686
:102FD0000021018C4FF6F7731940114301847047AB
:102FE0000A460021018C4FF6DF7319404FF6FF733C
:102FF00003EA02131943018470470A460021018C39
:103000004FF67F7319404FF6FF7303EA021319431B
:10301000018470470A460021018C4FF6FF53194086
:103020004FF6FF7303EA02231943018470470A46EF
:103030000021018C4FF2FF7319404FF6FF7303EA32
:1030400002231943018470470A460021018C4DF682
:10305000FF7319404FF6FF7303EA023319430184EB
:10306000704730B5002301248C40A3B2048C9C43EC
:103070000484048C02FA01F5ADB22C43048430BD03
:1030800030B5002304248C40A3B2048C9C430484F8
:10309000048C02FA01F5ADB22C43048430BD70B546
:1030A0000346002000241846183001258D40ACB29C
:1030B0001D8CA5431D8409B1082909D100EB6100CD
:1030C000056825F0700505600568154305600EE08C
:1030D0000D1FC5F34E052844056825F4E04505603D
:1030E00005684FF6FF7606EA02263543056070BD97
:1030F00021B1028842F00202028004E002884FF609
:10310000FD731A400280704721B1028842F0040228
:10311000028004E002884FF6FB731A400280704779
:1031200021B1828842F08002828004E082884FF6DA
:103130007F731A408280704702884FF6F7731A40F7
:10314000028002880A430280704782884FF68F739C
:103150001A40828082880A438280704702894FF633
:10316000F8731A40028102890A430281704702897A
:103170004FF67F731A40028102890A430281704729
:1031800081847047818570478186704701877047C9
:1031900081877047A0F84010704702884FF6FF43C0
:1031A0001A40028002880A43028070470146888ED6
:1031B00070470146088F70470146888F7047014667
:1031C000B1F8400070470146888C70470146088D71
:1031D000704702460020138A0B400BB1012000E02B
:1031E00000207047CA430282704730B50246002073
:1031F00000230024158A05EA0103958905EA0104E4
:1032000013B10CB1012000E0002030BDCA4302829E
:10321000704730B505462A460B4612F8010B13F8E5
:10322000014B08B1A042F8D01CB1002802D06D1C9F
:10323000F1E7284630BD0000064C074D06E0E06887
:1032400040F0010394E8070098471034AC42F6D3ED
:10325000FCF750FF7C3200089C32000802E008C8EE
:10326000121F08C1002AFAD170477047002001E000
:1032700001C1121F002AFBD1704700009C320008D8
:1032800000000020680000005C32000804330008E1
:1032900068000020400500006C320008574946498C
:1032A000204552524F45212020202020534D4F478A
:1032B00020484947482121214175746F20204D61E4
:1032C0006E75616C000000000000000000A24A045E
:1032D00000000000000000000102030406070809C6
:1032E00000000000000000000000000000000000DE
:1032F0000000010203040102030406070809020496
:0433000006080000BB
:04000005080000ED02
:00000001FF
